:020000040800F2
:10000000800B002031230008250200082702000889
:100010002B0200082F020008330200080000000035
:10002000000000000000000000000000370200088F
:1000300039020008000000003B0200083D020008F1
:100040004B2300084B2300084B2300084B230008D8
:100050004B2300084B2300084B2300084B230008C8
:100060004B2300084B2300084B2300084B230008B8
:100070004B2300084B2300084B2300084B230008A8
:100080004B2300084B2300084B2300084B23000898
:100090004B2300084B2300084B2300084B23000888
:1000A0004B2300084B2300084B2300084B23000878
:1000B0001B0900082B080008C30600084B23000892
:1000C0004B2300084B2300084B2300084B23000858
:1000D0004B230008A72200084B2300084B230008ED
:1000E0004B2300084B2300084B2300084B23000838
:1000F0004B2300084B2300084B2300084B23000828
:100100004B2300084B230008B30700084B230008CB
:100110004B2300084B230008310900084B2300083B
:100120004B2300084B2300084B2300084B230008F7
:1001300000F002F800F067F80AA090E8000C824492
:100140008344AAF10107DA4501D100F05CF8AFF26F
:10015000090EBAE80F0013F0010F18BFFB1A43F0A5
:10016000010318478C680000AC6800000A444FF097
:10017000000C10F8013B13F0070408BF10F8014B06
:100180001D1108BF10F8015B641E05D010F8016B4B
:10019000641E01F8016BF9D113F0080F1EBF10F8AF
:1001A000014BAD1C0C1B09D16D1E58BF01F801CBD2
:1001B000FAD505E014F8016B01F8016B6D1EF9D555
:1001C0009142D6D37047000000230024002500266A
:1001D000103A28BF78C1FBD8520728BF30C148BFAA
:1001E0000B607047662905F07E82002070471FB5BE
:1001F00004F094F804000020002104F0EBFDE0601E
:100200001FBD10B510BD04F0A1F91146FFF7EFFFB7
:1002100000F006F904F0BFF903B4FFF7F2FF03BCE6
:1002200001F0E6FF704700BFFEE700BFFEE700BF3A
:10023000FEE700BFFEE77047704770477047000059
:100240000CB50020019000906C48006840F48030AC
:100250006A49086000BF6948006800F400300090F7
:100260000198401C0190009818B90198B0F5A06F52
:10027000F1D16248006800F4003010B10120009014
:1002800001E0002000900098012843D15C480068FC
:1002900040F010005A4908600846006820F003004A
:1002A00008600846006840F0020008605348406853
:1002B000524948600846406848600846406840F433
:1002C000806048600846406820F47C10486008461A
:1002D000406840F4E81048600846006840F08070CC
:1002E000086000BF4548006800F000700028F9D0A1
:1002F0004248406820F00300404948600846406892
:1003000040F00200486000BF3C48406800F00C002C
:100310000828F9D10CBD10B5FFF792FF10BD10B53C
:100320003648006840F001003449086008464068DB
:10033000344908403149486008460068324908405D
:100340002E4908600846006820F4802008600846AE
:10035000406820F4FE0048604FF41F008860FFF7FB
:10036000DAFF4FF000602949086010BD10B5002188
:1003700000200022214B5B6803F00C0121B104290D
:1003800006D0082928D107E0214B224C236027E022
:100390001F4B204C236023E0184B5B6803F4701064
:1003A000164B5B6803F48032022303EB904022B9C2
:1003B000194B4343174C23600DE0104B5B6803F46B
:1003C000003323B1144B4343124C236003E0104B22
:1003D0004343104C236003E00D4B0E4C236000BFE1
:1003E00000BF064B5B68C3F303130C4CE15C094B85
:1003F0001B68CB40074C236010BD0000001002407A
:10040000002002400000FFF8FFFFF6FE08ED00E0CC
:1004100000127A000000002000093D0004000020C6
:1004200008B501F07BFE4FF4A06001F0A1FF4FF48E
:10043000165001F0ECFE00F03AFF4FF6FF7001F0AD
:1004400059F84FF6FF704A4908600421494802F004
:100450000CF940F2CF21642000F0FCF901F0D0FA51
:1004600047214FF47A7000F0FCF800F047FC00F0F0
:1004700093F800F01EFA4721642000F0A8F840F23B
:10048000CF214FF47A7000F013FB00233A4A642125
:100490003C2001F0DFF90023384A6421184601F0BE
:1004A000D9F90023364A5021184601F0D3F9002328
:1004B000344A3C21184601F0CDF900203C230A22A1
:1004C00005210090104601F0AAF8002005238222A1
:1004D000194600900A2001F0A2F800F0BBFD02E0EE
:1004E00029A003F045FC00F038FE0028F8D101F007
:1004F000BFFC40F2CF2141F2883000F067F935E0CF
:1005000023480068B0F5FA7F2ED10020204908600A
:1005100000902048032364218269192001F005FA24
:10052000002000901B4803236421C269552001F07C
:10053000FCF900200090174804235021426919203B
:1005400001F0F3F900200090124804233C210268D6
:100550001E2001F0EAF9002000900E4804233C21FF
:100560004268502001F0E1F900F08BFBC8E7000081
:10057000C4030020001401401C00002018000020CB
:1005800014000020200000206661696C210A000030
:10059000440000201404002008B50121042002F0CA
:1005A00071FA1820ADF8000010208DF80300032028
:1005B0008DF802006946FE4801F0A8FF1021FC48B2
:1005C00002F051F80821FA4802F04FF808BD30B5A2
:1005D00089B005460C460121C80202F053FA0121F8
:1005E000042002F04FFA4FF48070ADF8200018207C
:1005F0008DF8230003208DF8220008A9EC4801F0B3
:1006000085FFA8B2ADF81800A0B2ADF81400002024
:10061000ADF81A00ADF8160005A9E64802F06EFD27
:100620006020ADF804000120ADF806000020ADF810
:100630000A00ADF80C0001A9DE4802F09CFD012182
:10064000DC4803F0C3F80821DA4803F0E3F901219C
:10065000D84803F0AFF90121D64803F0ABF809B050
:1006600030BD7FB504460D460121042002F017FA83
:10067000A8B2ADF804000020ADF80600A0B2ADF8B5
:1006800008000020ADF80A0001A9CB4802F036FDB1
:1006900001221146C84803F0A8F81E208DF800007A
:1006A00000208DF8010002208DF8020001208DF855
:1006B0000300684601F061FE0121BF4803F07AF8AB
:1006C0007FBD10B50121BC4803F03DFB10B301F024
:1006D000CBF9BA49087008460078102807DA0120DB
:1006E000B7490870B5480078B64908700EE0B348BD
:1006F000007810280AD1B2480078012806D10020DD
:10070000AF490870AF48007801F07CFA0121AA488F
:1007100003F02AFB10BD38B50024AB480168AB4894
:10072000006804F06BFF0446A949204604F02AFF44
:1007300004D9A849204604F025FE0AD800201E232B
:100740000090A5480278521C1946007800F067FF17
:100750001EE02146A14804F087FD054604F0F2FDA5
:100760009F490870002000909E4803789A480278BC
:10077000521C084601789848007800F050FF9848CD
:1007800000789849087094480078401C9249087095
:100790009148007882280BD14FF6FF7032238222D5
:1007A0000A2100900F2000F004FF0F208A490870F2
:1007B00038BD10B501218C4803F0C5FA28B1FFF708
:1007C000AAFF0121884803F0CFFA10BD7FB5054686
:1007D0000C460121082002F062F9A8B2ADF8080029
:1007E000A0B2ADF804000020ADF80A00ADF8060094
:1007F00001A97D4802F082FC012211467A4802F0EC
:10080000F4FF32208DF8000001208DF80100032054
:100810008DF8020001208DF80300684601F0ADFD5F
:100820000121714802F0C6FF7FBD10B501216F485C
:1008300003F089FA68B16E480078401C6C49087072
:100840006C480068401C6B4908600121674803F050
:100850008BFA10BD7FB505460C460121022002F03F
:100860001EF9A8B2ADF80800A0B2ADF8040000204F
:10087000ADF80A00ADF8060001A95C4802F03EFCA4
:1008800001221146594802F0B0FF1D208DF80000EA
:1008900001208DF8010002208DF8020001208DF862
:1008A0000300684601F069FD0121504802F082FF13
:1008B0007FBD08B50121042002F0E4F80320ADF863
:1008C000000004208DF803006946394801F01EFE3F
:1008D0000121084602F0E3F84FF6FF704FF0804127
:1008E0008885002008850846008820F4407008802C
:1008F0000846008820F0600008800A231A46032179
:10090000580703F00AF800214FF0804003F0E6F9A1
:100910000121880702F04EFF08BD10B501218807AC
:1009200003F011FA18B10121880703F01DFA10BD78
:100930002DE9F0410121304803F005FA002836D0B6
:100940004FF08040008800F01000042801DD0120F5
:1009500000E00020294908600846006800285CDDA6
:100960004FF0804003F0DDF9C0F58034E01704EB70
:1009700090708010224908600968642201FB02F02F
:1009800004F0DFFB064600221E4B04F06BFA04461F
:1009900004F036FA0C49086019490968642201FB21
:1009A00002F004F0CEFB06460022164B2CE07DE060
:1009B00000080140002C01400008004028000020F1
:1009C0004100002040000020300000202C000020CA
:1009D00000007041000070C15C0000200000F04188
:1009E0005D0000205E000020000C0040000400407C
:1009F000420000204400002000100040340000208D
:100A00003800002000E0744004F02CFA044622462E
:100A10000B46A1A003F0ACF92CE04FF0804003F0AE
:100A200080F90446C01704EB907080109F4908605D
:100A30000968642201FB02F004F083FB06460022F1
:100A40009B4B04F00FFA044604F0DAF99949086068
:100A500096490968642201FB02F004F072FB064625
:100A60000022934B04F0FEF9044622460B4692A066
:100A700003F07EF98F480068944948609448006804
:100A800000F04AF9934908600846006804F05AFCEF
:100A900084B22146904803F025F900214FF08040B0
:100AA00003F01CF901218D4803F05EF9BDE8F081E7
:100AB0007FB505460C460121102001F0F0FFA8B2D9
:100AC000ADF80800A0B2ADF804000020ADF80A00AF
:100AD000ADF8060001A9814802F010FB0122114681
:100AE0007E4802F082FE36208DF8000000208DF84E
:100AF000010003208DF8020001208DF803006846F4
:100B000001F03BFC0121754802F054FE7FBD0178E5
:100B1000412904D10121724A1170401C16E001786C
:100B2000422904D102216E4A1170401C0EE0017866
:100B3000432904D103216A4A1170401C06E0017860
:100B4000442903D10421664A1170401C70472DE9E5
:100B5000F041044662480078002870DD13E02078F8
:100B600030280FDB207839280CDC207830385D49BC
:100B700008605D48006800EB8000096801EB4000F8
:100B800059490860641C20780028E8D1544800784E
:100B9000012806D002281ED0032836D0042869D1A7
:100BA0004EE05148006804F0B5FA054600224F4B6C
:100BB00004F058F9074604F023F94D490860084647
:100BC000006842494861002045490870454908606D
:100BD000454908604FE04448006804F09BFA054628
:100BE0000022424B04F03EF9074604F009F940495F
:100BF0000860084600683549886100203849087057
:100C0000384908603849086035E03748006804F022
:100C100081FA05460022354B04F024F9074604F01A
:100C2000EFF833490860084600682849C861002089
:100C30002B4908702B4908602B4908601BE01BE01A
:100C40002948006804F066FA05460022274B04F0A4
:100C500009F9074604F0D4F82549086008460068F9
:100C60001A49086000201E4908701E4908601E4984
:100C7000086000E000BF00BF00201E490880BDE8FA
:100C8000F08110B51B48008828B11B48FFF73FFFD3
:100C90001948FFF75CFF10BD646F776E20737064B6
:100CA0003A252E316620722F732000003800002074
:100CB00000E07440300000207570207370643A25A5
:100CC0002E316620722F73200000000014040020D3
:100CD0002C0000203C000020002C014000100040AF
:100CE000500000205400002060000020000024403C
:100CF00058000020FC0300205404002000203A4942
:100D00000860486088600861C860384848613848B1
:100D100088613848C86170472DE9F041044632487F
:100D2000046002465168106804F068FC2E4988602F
:100D30000A46D168906804F061FC05462A4841697A
:100D4000284604F053FB284948620A469168906996
:100D500004F04CFB244988620846C1684FF080408B
:100D600004F044FB074620488168384604F03BFC09
:100D700006461D480169304604F076FA05461A48D1
:100D8000C169284604F032FB1749C8620A46916AD5
:100D9000506A04F069FA06461348C16A304604F006
:100DA00063FA05461048016A284604F05DFA0E49C8
:100DB00008620846C068086108468068C860086A1A
:100DC0000D4904F0DFFB02D80B48074908620649C9
:100DD000086A002104F0D6FA02D80020024908620D
:100DE0000148006ABDE8F081140400203333733FEA
:100DF000CDCCCC3ECDCC4C3E0000C84208B5012144
:100E0000102001F03FFE4FF4C050ADF8000010205C
:100E10008DF8030003208DF8020069468A4801F02E
:100E200075FB0120894908608949C1F8AC0108BDFA
:100E300010B58548406820F47040834948600846F2
:100E4000406840F44050486001208049091F086014
:100E50007F49C1F8B001042001F079F900207B49F5
:100E6000091F0860042001F072F900207849C1F8D8
:100E7000B00110BD10B57448406820F4704072494C
:100E800048600846406840F44050486000206F4980
:100E900008606F49C1F8AC01042001F058F9012045
:100EA0006A4908606A49C1F8AC01042001F04FF9B1
:100EB00010BD10B500246448406820F470406249B9
:100EC00048600846406840F40040486001205F499F
:100ED000091F086001F03BF901205D49C1F8B0012C
:100EE00001F035F907E0601CC4B2FA2C03DDFFF70E
:100EF000C1FF012010BD5548843800680028F2D198
:100F00005249086000BFF5E710B500204F4908605E
:100F10004D48406820F470404B494860084640689E
:100F200040F44050486000204949C1F8AC0102201B
:100F300001F00DF9012045490860022001F007F990
:100F400000204349C1F8B00110BD10B500203F4951
:100F500008603D48406820F470403B4948600846BE
:100F6000406840F44050486001203949C1F8AC0164
:100F7000022001F0ECF8012034490860022001F061
:100F8000E6F800203249C1F8B00110BD70B5044642
:100F90002D48406820F470402B494860084640685E
:100FA00040F440504860002028490860002517E0C0
:100FB000E0092649091F08606006040E022001F0BE
:100FC000C6F801202249C1F8B001022001F0BFF8A3
:100FD00000201E490860022001F0B9F8681CC5B263
:100FE000082DE5DB70BD70B5054600241648406845
:100FF00020F47040144948600846406840F40040BE
:101000004860002616E0002010490860022001F028
:101010009EF801200E49C1F8B0016006040E0B488D
:101020008438006808B1601CC4B2012001F08FF858
:10103000701CC6B2082EE6DB15B9FFF786FF01E08B
:10104000FFF762FF204670BD00100140B001224250
:101050000000224210B5FFF7D1FE10BD70B5044666
:101060000026FFF7E5FE2546E11704EB11610912A2
:10107000A02202EB4101C8B2FFF788FFFFF719FF7A
:10108000E11704EB11610912A4EB0121C8B2FFF7CB
:101090007DFFFFF70EFFFFF7CBFEA120FFF776FFE6
:1010A000FFF707FF0020FFF79EFF0646FFF7E2FE6F
:1010B000304670BD70B504460E46FFF7B9FE2546B2
:1010C000E11704EB11610912A02202EB4101C8B241
:1010D000FFF75CFFFFF7EDFEE11704EB116109126A
:1010E000A4EB0121C8B2FFF751FFFFF7E2FE304643
:1010F000FFF74CFFFFF7DDFEFFF7BCFE0A2001F013
:101100004AF870BD2DE9F04105460E461746002409
:1011100009E0E20026FA02F2D1B22A1990B2FFF7F2
:10112000C9FF601CC4B2BC42F3DBBDE8F0812DE90D
:10113000F04107460C460026002509E03602391921
:10114000491B491E88B2FFF789FF0644681CC5B2D7
:10115000A542F3DB3046BDE8F08110B5FF20FFF774
:101160007DFF0446552C01D1002010BD5521FF20E4
:10117000FFF7A0FFFF20FFF771FF0446552C01D1B8
:101180000020F2E70120F0E770B506460C46154650
:1011900008E03046721C96B2FFF760FF04F8010BBE
:1011A000681E85B2002DF4D170BD70B505460C46A1
:1011B000164606E021782846FFF77CFF681C85B2BA
:1011C000641C301EA6F101018EB2F3D170BD000087
:1011D00070B504464FF48051FE4801F046FA0025F0
:1011E0001BE04FF40051FB4801F03FFA04F080008F
:1011F00028B14FF40041F74801F035FA04E04FF40C
:101200000041F44801F031FA4FF40051F14801F087
:101210002AFA6006040E681CC5B2082DE1DB4FF403
:101220008051EC4801F01FFA70BD10B504464FF430
:101230008061E84801F017FA2046FFF7C9FF10BDAA
:1012400010B504464FF48061E24801F00CFAC4F393
:101250000720FFF7BDFFE0B2FFF7BAFF10BD10B5E2
:1012600004464FF48061DB4801F0FFF92046FFF7A8
:10127000AFFF10BD2DE9F04104460D4616461F464E
:101280002A20FFF7ECFFA01CFFF7DAFFB01CFFF7E6
:10129000D7FF2B20FFF7E3FFE81CFFF7D1FFF81C77
:1012A000FFF7CEFF2C20FFF7DAFFBDE8F08108B58D
:1012B0000121082001F0E6FB4BF60240ADF80000EA
:1012C00010208DF8030003208DF802006946C14804
:1012D00001F01CF94BF60241BE4801F0C4F90121AE
:1012E000202001F0CFFB0420ADF8000010208DF885
:1012F000030003208DF802006946B74801F006F9A3
:101300000421B54801F0AFF94FF40061B14801F094
:10131000ACF9C82000F03FFF4FF40061AD4801F088
:10132000A2F9C82000F037FF0221AA4801F09BF97A
:101330001120FFF794FF782000F02DFFB120FFF778
:101340008EFF0220FFF771FF3520FFF76EFF36207A
:10135000FFF76BFFB220FFF782FF0220FFF765FF68
:101360003520FFF762FF3620FFF75FFFB320FFF75E
:1013700076FF0220FFF759FF3520FFF756FF362092
:10138000FFF753FF0220FFF750FF3520FFF74DFF17
:101390003620FFF74AFFB420FFF761FF0320FFF775
:1013A00044FFC020FFF75BFFA220FFF73EFF0220B3
:1013B000FFF73BFF8420FFF738FFC120FFF74FFF07
:1013C000C520FFF732FFC220FFF749FF0D20FFF7CE
:1013D0002CFF0020FFF729FFC320FFF740FF8D20DF
:1013E000FFF723FF2A20FFF720FFC420FFF737FF76
:1013F0008D20FFF71AFFEE20FFF717FFC520FFF73C
:101400002EFF0A20FFF711FF3620FFF728FFC82024
:10141000FFF70BFFE020FFF722FF1220FFF705FF89
:101420001C20FFF702FF1020FFF7FFFE1820FFF738
:10143000FCFE3320FFF7F9FE2C20FFF7F6FE2520F7
:10144000FFF7F3FE2820FFF7F0FE2820FFF7EDFE60
:101450002720FFF7EAFE2F20FFF7E7FE3C20FFF7EB
:10146000E4FE0020FFF7E1FE0320FFF7DEFE03208D
:10147000FFF7DBFE1020FFF7D8FEE120FFF7EFFEBD
:101480001220FFF7D2FE1C20FFF7CFFE1020FFF73F
:10149000CCFE1820FFF7C9FE2D20FFF7C6FE28203E
:1014A000FFF7C3FE2320FFF7C0FE2820FFF7BDFE95
:1014B0002820FFF7BAFE2620FFF7B7FE2F20FFF700
:1014C000B4FE3B20FFF7B1FE0020FFF7AEFE032085
:1014D000FFF7ABFE0320FFF7A8FE1020FFF7A5FEE5
:1014E0003A20FFF7BCFE0520FFF79FFE2920FFF7FB
:1014F000B6FE08BD70B506467F231A460021084691
:10150000FFF7B8FE002408E0002503E03046FFF7AF
:1015100097FE6D1C802DF9D3641C802CF4D370BD14
:101520002DE9F05F81468A4693461C46102C00D177
:101530002A4D202C00D12A4D0AEB0400431E09EB52
:101540000400421E51464846FFF794FE04FB04F097
:10155000C11700EB5171C1F3C7080BFB08550027F9
:1015600015E000260EE028780121B140084018B1AE
:101570000A98FFF765FE03E01A480068FFF760FE6F
:10158000701CC6B2082EEEDB6D1C781CC7B2474536
:10159000E7DBBDE8F09F70B504460D4616462B46C6
:1015A000224629462046FFF765FE3046FFF748FEF3
:1015B00070BD2DE9F04704460D4616461F46DDF87E
:1015C00020A03B46324629462046FFF753FEA84658
:1015D00015E00000000C014000140140E40200206E
:1015E00064000020C4030020A14604E05046FFF739
:1015F00027FE09F10109B145F8D908F10108B845FC
:10160000F2D9BDE8F087F8B504460D461646691EC6
:10161000601E6B1C621C0096FFF7CBFFF8BD2DE926
:10162000FF4F85B081468A46002003908346079885
:10163000A0EB09040898A0EB0A06CDF80890CDF8B5
:1016400004A0002C01DD012705E00CB9002702E011
:101650004FF0FF376442002E02DD4FF0010806E034
:1016600016B94FF0000802E04FF0FF386642B4426E
:1016700001DD254600E03546002004901BE0129A6B
:10168000DDE90110FFF787FF039820440390B3447E
:101690000398A84205DD0398401B03900298384444
:1016A0000290AB4504DDABEB050B01984044019083
:1016B0000498401C0490691C04988842DFD309B048
:1016C000BDE8F08F2DE9F84305460E4617469846CB
:1016D000089C33463A46314628460094FFF79FFF60
:1016E00043462A46314628460094FFF798FF434672
:1016F0003A46414628460094FFF791FF43463A4652
:10170000314638460094FFF78AFFBDE8F8832DE99B
:10171000F04706460F46904699460025444631E07C
:10172000791B301B4A46FFF736FF791B30194A46B2
:10173000FFF731FF3919701B4A46FFF72CFF391BA1
:10174000701B4A46FFF727FF791930194A46FFF701
:1017500022FF391B70194A46FFF71DFF391970190E
:101760004A46FFF718FF7919301B4A46FFF713FF67
:101770006D1C05FB05F004FB040108FB08F0814229
:1017800000DD641EA542CBDDBDE8F0872DE9F84FF2
:1017900005460F4616469A46DDF828B00095702D8E
:1017A00001D8702F01D9BDE8F88FA6F12000C6B28C
:1017B00007F10F03EA1D39462846FFF75BFDBAF132
:1017C000000F25D1002420E004EB0610884911F811
:1017D00000904FF0000811E009F0010018B15846E0
:1017E000FFF72EFD03E083480068FFF729FD4FEA6D
:1017F00069096D1C08F1010000F0FF08B8F1080F3D
:10180000EADB009D7F1C601CC4B2102CDCDB1FE0F7
:1018100000241BE004EB0610754911F800904FF00E
:1018200000080EE009F0010028B1391905EB0800A5
:101830005A46FFF7B0FE4FEA690908F1010000F0CF
:10184000FF08B8F1080FEDDB601CC4B2102CE1DB1F
:1018500000BFA8E7F8B505460E4614461F4615E03A
:10186000702D01D900251036702E06D900200546AE
:1018700006464FF47840FFF73DFE0097227800239C
:1018800031462846FFF782FF0835641C207800287F
:10189000E6D1F8BD10B50246012000E050430B1E12
:1018A000A1F10104E1B2F9D110BD2DE9F84F0646CE
:1018B0008A4690461D46DDF828904FF0000B002424
:1018C0002FE0281B401EC1B20A20FFF7E3FFB8FB40
:1018D000F0F00A21B0FBF1F201FB1207BBF1000F9F
:1018E00010D1681EA0420DDD57B9082101FB04602C
:1018F000002320225146CDF80090FFF747FF0EE06D
:101900004FF0010B07F13001CAB2082101FB04605E
:1019100000235146CDF80090FFF738FF00BF601C50
:10192000C4B2AC42CDDBBDE8F88F2DE9F84F0646D6
:101930008A4617461C46DDF828802F49384603F0B2
:1019400055FD009003F0FEFC834600252CE0601B53
:10195000401EC1B20A20FFF79DFFBBFBF0F00A2139
:10196000B0FBF1F201FB1209A01EA8420ED1A11E8C
:10197000082202FB016000232E225146CDF8008090
:10198000FFF704FF681CC5B2601CC4B209F1300146
:10199000CAB2082101FB056000235146CDF8008042
:1019A000FFF7F4FE681CC5B2A542D0DBBDE8F88F96
:1019B0002DE9F04105460E461746984643463A46FD
:1019C00031462846FFF756FC00240CE0012101EBCC
:1019D00044010A4A505CFFF728FC084911F814003A
:1019E000FFF723FC641CB4F5C86FEFDBBDE8F081A2
:1019F000EA560008C40300200000C842DA5C000870
:101A000010B5FC48806940F00800FA498861084632
:101A1000806940F0100088610121F74800F047FE1E
:101A2000F648006880B2F549086008460068F44945
:101A30000843F2490860F1480C30006840F0F000BB
:101A4000EE490C310860EF4800686FF30F00ED4974
:101A500008600846006843F233310843E9490860EA
:101A60000846C068C86010BD1020E649C96800215A
:101A7000E44AD1601146C96841F00701D160DF49ED
:101A80000831096801F0F001702906D0B02906D0AC
:101A9000D02906D0E02908D105E00F2005E00E206E
:101AA00003E00D2001E00C2000BF00BFD549C9684C
:101AB0000021D44AD1601146C96841F00B01D160C0
:101AC000CE490831096801F0F001702906D0B0292B
:101AD00006D0D02906D0E02908D105E00B2006E089
:101AE0000A2004E0092002E0082000E000BF00BF57
:101AF000C449C9680021C34AD1601146C96841F090
:101B00000D01D160BD490831096801F0F00170296B
:101B100006D0B02906D0D02906D0E02908D105E0AA
:101B2000072006E0062004E0052002E0042000E093
:101B300000BF00BFB349C9680021B24AD160114655
:101B4000C96841F00E01D160AC490831096801F063
:101B5000F001702906D0B02906D0D02906D0E0299E
:101B600008D105E0032006E0022004E0012002E0A5
:101B7000002000E000BF00BF70472DE9F047044699
:101B80008946A1480078012804D100209F490860B7
:101B90009D4908709D48006800EB800004EB400000
:101BA0009A4908600846006803F0B4FA0546002226
:101BB000974B03F057F9074603F022F9954908605F
:101BC000BDE8F0879448007830B1012808D0022899
:101BD0000AD0032810D10BE001208F4908700FE0D4
:101BE00002208D4908700BE003208B49087007E044
:101BF00004208949087003E000208749087000BF6D
:101C000000BF7047F8B504460A2C04DA8248017810
:101C10002046FFF7B2FF0A2C0CD10A217FA000F06A
:101C2000C1F9FFF7CFFF01207749087000207949FB
:101C30000860DEE00B2CFCD00C2CFAD00D2C28D147
:101C40007749C86903F0E4FA05462A460B4675A0B1
:101C500002F08EF87249086A03F0DAFA05462A465D
:101C60000B4673A002F084F86D49486A03F0D0FA7D
:101C700005462A460B4671A002F07AF868490868C2
:101C800003F0C6FA05462A460B466FA002F070F82C
:101C9000AFE00E2C07D101205B4908700E215FA038
:101CA00000F080F9A5E00F2CC3D10F215BA000F05C
:101CB00079F959480078012806D0022829D003284C
:101CC0004CD0042824D16EE0524800686149086075
:101CD00001204D49087000204F4908705E494D4869
:101CE000006803F083FB054603F02CFB5B490860AA
:101CF00001221E20FFF759FA0120594908700020DF
:101D00000090474804233C2102681E20FFF70DFE87
:101D10006EE0404800684249C86101203A490870B5
:101D200000203D4908704C493A48006803F05EFBCA
:101D3000054603F007FB4B49087001220020FFF71E
:101D400034FA0220464908700020009034480423E9
:101D50005021C2691920FFF7E8FD49E02D480068CD
:101D60002F49086201202849087000202A4908707C
:101D700039492848006803F039FB054603F0E2FAC8
:101D80003949087001220A20FFF70FFA032034496D
:101D9000087000200090224803236421026A192061
:101DA000FFF7C3FD24E01B4800681D49486201207D
:101DB000154908700020184908702749154800681F
:101DC00003F014FB054603F0BDFA28490870012210
:101DD0001420FFF7EAF90420214908700020009040
:101DE0000F4803236421426A5520FFF79EFD00BF80
:101DF00000BFF8BD0010024000023000000C01409E
:101E00000000888800100140EC030020F00300204F
:101E100000002440CC030020C803002025640A00F1
:101E2000140400206B703A252E31660A0000000071
:101E30006B693A252E31660A000000006B643A2572
:101E40002E31660A000000007370643A252E316658
:101E50000A0000002C00002000002041D0030020D8
:101E6000ED030020D4030020D5030020D60300207A
:101E70002DE9F04134480078012806D002281BD013
:101E8000032830D004285CD144E001222F491E20D1
:101E9000FFF77AF92D49086803F053F90646002246
:101EA0002B4B02F0DFFF044602F0AAFF294908602D
:101EB00000202549087044E0012227490020FFF74F
:101EC00063F92549087803F03CF906460022204BC7
:101ED00002F0C8FF044602F093FF1E49C8610020CB
:101EE000194908702DE001221C490A20FFF74CF91E
:101EF0001A49087803F025F906460022144B02F02F
:101F0000B1FF044602F07CFF1249086200200E492E
:101F1000087016E0012212491420FFF735F9104924
:101F2000087803F00EF906460022094B02F09AFFEA
:101F3000044602F065FF0749486200200249087024
:101F400000BF00BFBDE8F081ED0300204404002085
:101F50000000244014040020D7030020DB030020ED
:101F6000DF03002010B50246012000E050430B1EA5
:101F7000A1F10101FAD110BD00BF6749098801F044
:101F800040010029F9D06449091D0880704700B557
:101F9000024603E012F8010BFFF7EEFF107800286D
:101FA000F8D100BD0FB42DE9F8434FF00009002629
:101FB00009A80090A5E0089800780A2870D00D289C
:101FC0006FD025286ED10898401C0890089800789A
:101FD000632876D0642804D0732865D0782879D116
:101FE00029E0009880C800903D46002404E0601C71
:101FF000C4B20A2095FBF0F5002DF8D126443D46E9
:1020000016E0611E0A20FFF7ADFFB5FBF0F000F00F
:10201000FF08611E0A20FFF7A5FFB5FBF0F100FBEA
:10202000115508F13001C8B2FFF7A6FF601EC4B217
:10203000002CE6D14FE0009880C800903D46002477
:1020400006E0601CC4B22846E91705EB11710D11BA
:10205000002DF6D126443D461FE0611E1020FFF7FB
:1020600081FFB5FBF0F000F0FF08611E1020FFF7C4
:1020700079FFB5FBF0F100FB1155B8F1090F05DC54
:1020800008F13001C8B2FFF777FF04E008F157010B
:10209000C8B2FFF771FF601EC4B2002CDDD11AE098
:1020A0001BE01FE023E00CE0009850F8049B009038
:1020B0004846FFF76CFF484601F0EDFE06440AE093
:1020C00008E0009911F8042BD0B20091FFF754FFFB
:1020D000761C00E000BF00BF0FE00A20FFF74CFFB6
:1020E000761C0AE00D20FFF747FF761C05E00899F3
:1020F0000878FFF741FF761C00BF00BF0898401C1E
:1021000008900898007800287FF455AF009030467A
:10211000BDE8F8035DF814FB0038014010B56FF01E
:10212000040000F074F92E4800682E49B0FBF1F06D
:102130002D4908700846007800EB4001C1EBC01043
:102140004FF6FF7101EAC0002849088010BD014622
:10215000254A12784A434FF0E0235A6100229A61DF
:102160001A46126942F001021A6100BF4FF0E022E4
:10217000106900F001021AB100F48032002AF5D093
:102180004FF0E022126922F001024FF0E0231A61C1
:1021900000229A6170470146144A12884A434FF060
:1021A000E0235A6100229A611A46126942F0010244
:1021B0001A6100BF4FF0E022106900F001021AB16D
:1021C00000F48032002AF5D04FF0E022126922F0AC
:1021D00001024FF0E0231A6100229A61704700006B
:1021E0000000002000127A00F4030020F603002013
:1021F000014600BF704700BF494A128802F0400202
:10220000002AF9D0C2B2464B1B1D1A80704710B588
:1022100086B00446012144F2050000F033FC4FF47F
:102220000070ADF8140003208DF8160018208DF80A
:10223000170005A93B4800F069F94FF48060ADF83C
:10224000140004208DF8170005A9364800F05EF947
:1022500025208DF8000003208DF801008DF8020084
:1022600001208DF80300684600F087F801940020F3
:10227000ADF80800ADF80A00ADF80C00ADF810009C
:102280000C20ADF80E0001A9254800F0A2FC0122A7
:1022900040F22551224800F034FD0121204800F091
:1022A00024FD06B010BD10B540F225511C4800F0C9
:1022B0000DFE10B31A4800F089FDC4B21A48008818
:1022C00000F40040C8B91848008800F4804060B1AC
:1022D0000A2C03D000201449088020E0124800880E
:1022E00040F400401049088019E00D2C06D10E483A
:1022F000008840F480400C49088010E00A480088BB
:10230000C0F30D0009490C5407480088401C0649D9
:10231000088008460088C72801DD0020088010BD1D
:102320000038014000080140FC0300205404002054
:102330000948804709480047FEE7FEE7FEE7FEE759
:10234000FEE7FEE7FEE7FEE7FEE7FEE70448054995
:10235000054A064B704700001F03000831010008C2
:1023600080050020800B00208007002080070020CF
:1023700031490143314A1160704770B50021002393
:102380000F22C47804B32D4C246804F4E064C4F52F
:10239000E064210AC1F10403CA40447804FA03F15D
:1023A0008478144021430901254C0678A15504780E
:1023B00004F01F050124AC4005786D11AD0005F156
:1023C000E025C5F8004109E0047804F01F05012468
:1023D000AC401C4D0678761145F8264070BD1A4A6F
:1023E0000A400243154B1B1F1A60704739B1134A4C
:1023F000121D12680243114B1B1D1A6006E00F4AA2
:10240000121D126882430D4B1B1D1A607047042871
:1024100008D14FF0E021096941F004014FF0E022BA
:10242000116107E04FF0E021096921F004014FF04C
:10243000E0221161704700000000FA050CED00E099
:1024400000E400E080E100E080FFFF1F10B50446DB
:10245000CC48844208D10121042000F02DFB00214A
:10246000042000F029FB46E0C748844208D101213E
:10247000082000F021FB0021082000F01DFB3AE0BD
:10248000C248844208D10121102000F015FB002130
:10249000102000F011FB2EE0BD48844208D101213C
:1024A000202000F009FB0021202000F005FB22E0A5
:1024B000B848844208D10121402000F0FDFA0021F3
:1024C000402000F0F9FA16E0B348844208D1012117
:1024D000802000F0F1FA0021802000F0EDFA0AE0FF
:1024E000AE48844207D10121801500F0E5FA0021B1
:1024F000A01500F0E1FA10BD10B50121084600F06A
:10250000DBFA0021012000F0D7FA10BD2DE9F041DF
:10251000024600250026002000230024002791F811
:1025200003C00CF00F0591F803C00CF0100CBCF1C7
:10253000000F03D091F802C04CEA050591F800C0E5
:10254000BCF1000F31D0146800202BE04FF0010CDB
:102550000CFA00F3B1F800C00CEA03069E4220D149
:1025600083004FF00F0C0CFA03F7BC4305FA03FC91
:102570004CEA040491F803C0BCF1280F06D14FF0D7
:10258000010C0CFA00FCC2F814C00AE091F803C078
:10259000BCF1480F05D14FF0010C0CFA00FCC2F859
:1025A00010C0401C0828D1D31460B1F800C0BCF1A1
:1025B000FF0F34DD546800202EE000F1080C4FF0CE
:1025C000010808FA0CF3B1F800C00CEA03069E42B9
:1025D00021D183004FF00F0C0CFA03F7BC4305FA2E
:1025E00003FC4CEA040491F803C0BCF1280F05D1A8
:1025F00000F1080C08FA0CF8C2F8148091F803C036
:10260000BCF1480F07D100F1080C4FF0010808FA9F
:102610000CF8C2F81080401C0828CED35460BDE8E6
:10262000F0814FF6FF710180022181700421C17099
:1026300070470246002093680B400BB1012000E078
:10264000002070470146886880B27047024600202B
:10265000D3680B400BB1012000E000207047014619
:10266000C86880B2704701617047416170470AB124
:10267000016100E041617047C16070474FF48032F2
:102680000A43826181618261826982697047024680
:102690000020434B18684FF68073184040EA021040
:1026A00008433F4B186070473E49C8617047F0B51A
:1026B0000A46002300240021002500F00046B6F160
:1026C000004F02D1364EF16901E0354E7168C0F31A
:1026D000034583B200F44016B6F5401F08D121F03F
:1026E00070612F4E766826F070662D4F7E6012E086
:1026F00000F48016B6F5801F06D1032606FA05F40D
:10270000A14341F0706106E0460D360103FA06F67A
:10271000B14341F0706122B1460D360103FA06F66D
:10272000314300F00046B6F1004F02D11C4EF1617A
:1027300001E01B4E7160F0BD30B500228B071C0F0D
:102740000F2303FA04F2164B08338C1053F824308D
:102750009343134C08348D1044F8253023468C10D5
:1027600053F824308C07240F00FA04F423430C4C54
:1027700008348D1044F8253030BD0A49DC3108603A
:102780007047000000080140000C014000100140AB
:102790000014014000180140001C014000200140CD
:1027A0000000014000002042DF48006840F00100C6
:1027B000DD49086008464068DC490840DA4948605D
:1027C00008460068DA490840D749086008460068AA
:1027D00020F4802008600846406820F4FE0048602D
:1027E0004FF41F0088607047CF49096821F4803199
:1027F000CD4A11601146096821F480211160B0F5BD
:10280000803F03D0B0F5802F0ED106E0C64909689D
:1028100041F48031C44A116007E0C349096841F4BA
:10282000A021C14A116000E000BF00BF704710B591
:1028300001460022002300204A11012A02D1BA4C8D
:10284000236806E0022A02D1B74C236A01E0B64CA5
:10285000636A01F01F02012494401C400CB1012066
:1028600000E0002010BD38B50020009000240025B5
:1028700000BF3120FFF7DBFF05460098401C0090A9
:102880000098B0F5A06F01D0002DF2D03120FFF7F5
:10289000CEFF08B1012400E00024204638BD0146E7
:1028A0000020A14A106820F0F80040EAC100106042
:1028B0007047A04908607047024600209A4B58684C
:1028C00020F47C1042EA01031843974B586070478C
:1028D00098490866704701460020934A506820F0E6
:1028E00003000843506070478F48406800F00C00B8
:1028F0007047014600208C4A506820F0F0000843E1
:102900005060704701460020874A506820F4E0601C
:1029100008435060704701460020834A506820F405
:10292000605040EAC1005060704729B17E4A527A37
:1029300002437D4B5A7204E07B4A527A82437A4BBF
:102940005A7270477B49D8310860704701460020B1
:10295000754A506820F44040084350607047002199
:10296000714A20321170704A82F82010012802D07A
:1029700004280AD104E001216B4A2032117005E0DD
:102980000521694A2032117000E000BF00BF704786
:102990006949086070476449096A0143624A1162E3
:1029A0007047654944390860704730B500210022FE
:1029B000002400235C4D6D6805F00C0121B1042951
:1029C00005D0082923D105E05C4D056022E05B4D70
:1029D00005601FE0544D6D6805F47012524D6D682E
:1029E00005F48034022505EB92421CB9544D554341
:1029F00005600BE04C4D6D6805F400351DB1504D80
:102A00005543056002E04D4D5543056002E04B4DD6
:102A1000056000BF00BF444D6D6805F0F001090975
:102A2000484D6B5C0568DD4045603F4D6D6805F4C1
:102A3000E061090A434D6B5C4568DD4085603A4DB5
:102A40006D6805F46051C90A3E4D6B5C4568DD4018
:102A5000C560354D6D6805F44041890B3A4D6B5C9E
:102A6000C568B5FBF3F5056130BD29B12E4A526941
:102A700002432D4B5A6104E02B4A526982432A4B90
:102A80005A61704729B1284A92690243264B9A61DC
:102A900004E0254A92698243234B9A61704729B129
:102AA000214AD2690243204BDA6104E01E4AD2690E
:102AB00082431D4BDA61704729B11B4AD268024339
:102AC000194BDA6004E0184AD2688243164BDA6088
:102AD000704729B1144A12690243134B1A6104E08A
:102AE000114A12698243104B1A61704712494039EA
:102AF000086070470F49C86470470B49C871704738
:102B00000948406A40F080700749486270470146B2
:102B10000020054A92680A400AB1012000E0002026
:102B20007047014988727047001002400000FFF8AA
:102B3000FFFFF6FE000042428004424200127A008B
:102B400000093D00FE0300200E04002010B50446DD
:102B5000FB48844209D101218803FFF7ADFF002122
:102B60004FF48040FFF7A8FF32E0F648844209D1D5
:102B700001214804FFF7ADFF00214FF40030FFF7BB
:102B8000A8FF25E0F048844209D101218804FFF71D
:102B9000A0FF00214FF48020FFF79BFF18E0EB48D7
:102BA000844209D10121C804FFF793FF00214FF4AB
:102BB0000020FFF78EFF0BE0E548844208D1012199
:102BC0000805FFF786FF00214FF48010FFF781FF13
:102BD00010BD2DE9F04786B005460E460024A246FA
:102BE00000BFA1460027B08900B100BF2F462C8A44
:102BF0004CF6FF700440F08804432C82AC894EF6FA
:102C0000F3100440B08831890843718908430443B4
:102C1000AC81AC8A4FF6FF400440B0890443AC82DB
:102C200001A8FFF7C2FEC648874202D1DDF810A016
:102C300001E0DDF80CA0A88900F4004040B10AEBE7
:102C4000CA0000EB0A1031684900B0FBF1F807E058
:102C50000AEBCA0000EB0A1031688900B0FBF1F8FA
:102C60006420B8FBF0F004012009642101FB108905
:102C7000A88900F4004040B1322000EBC900B0FB4D
:102C8000F1F000F00700044308E0322000EB0910E7
:102C90006421B0FBF1F000F00F0004432C8106B07A
:102CA000BDE8F0874FF41651016000218180C1809A
:102CB00001810C21418100218181704710B50246BC
:102CC0000020108A4FF2FF0318400B884C882343E2
:102CD0008C882343CC8823431843108210BD0021E5
:102CE000018041808180C180704721B1828942F496
:102CF0000052828104E082894DF6FF731A4082817E
:102D00007047F0B50346002400260025002040F659
:102D10006A17B94200D100BF1846C1F3421401F04E
:102D20001F06012707FA06F5012C01D10C3004E03B
:102D3000022C01D1103000E014301AB107682F4383
:102D4000076002E00768AF430760F0BD1AB1838AED
:102D50000B43838202E0838A8B4383827047028A1B
:102D60004FF6F0731A400282028A0A4302827047C9
:102D700082894FF2FF731A40828182890A438281DD
:102D8000704721B1828942F00202828104E0828987
:102D90004FF6FD731A4082817047028A4FF6DF7347
:102DA0001A400282028A0A430282704721B1028AD3
:102DB00042F48042028204E0028A4BF6FF731A401A
:102DC00002827047C1F308028280704701468888FA
:102DD000C0F308007047818941F00101818170478B
:102DE000028BD2B20283028B42EA01220283704735
:102DF000028B02F47F420283028B0A4302837047F4
:102E000021B1828A42F02002828204E0828A4FF657
:102E1000DF731A408282704721B1828A42F0100229
:102E2000828204E0828A4FF6EF731A4082827047F2
:102E300021B1828A42F00802828204E0828A4FF63F
:102E4000F7731A408282704721B1828942F40042AE
:102E5000828103E08289C2F30E028281704721B130
:102E6000828A42F40062828204E0828A4FF2FF7317
:102E70001A4082827047828A4FF6FB731A40828220
:102E8000828A0A438282704721B1828A42F002021A
:102E9000828204E0828A4FF6FD731A408282704774
:102EA00002460020B1F5007F00D100BF13880B401F
:102EB0000BB1012000E00020704701F40072B2F570
:102EC000007F00D100BFCA430280704770B5024640
:102ED000002400230025002040F66A16B14200D1EC
:102EE00000BFC1F3421501F01F03012606FA03F3E8
:102EF000012D02D19689334006E0022D02D1168AB7
:102F0000334001E0968A33400C12012606FA04F49D
:102F10001688344013B10CB1012000E0002070BDD0
:102F200010B50022002340F66A14A14200D100BF70
:102F30000A1201249440A3B2DC43048010BD0000B7
:102F4000003801400044004000480040004C004070
:102F50000050004010B50446FE48844208D10121CB
:102F6000C014FFF7A9FD0021E014FFF7A5FDC4E0A0
:102F7000B4F1804F08D101210846FFF7AAFD0021D6
:102F80000120FFF7A6FDB8E0F348844208D10121F3
:102F90000220FFF79EFD00210220FFF79AFDACE022
:102FA000EE48844208D101210420FFF792FD002160
:102FB0000420FFF78EFDA0E0E948844208D10121FA
:102FC0000820FFF786FD00210820FFF782FD94E02E
:102FD000E448844208D101211020FFF77AFD002146
:102FE0001020FFF776FD88E0DF48844208D10121F8
:102FF0002020FFF76EFD00212020FFF76AFD7CE016
:10300000DA48844208D101214014FFF755FD002120
:103010006014FFF751FD70E0D548844209D10121C9
:10302000C804FFF749FD00214FF40020FFF744FDDD
:1030300063E0D048844209D101210805FFF73CFD37
:1030400000214FF48010FFF737FD56E0CA48844254
:1030500009D101214805FFF72FFD00214FF4001091
:10306000FFF72AFD49E0C548844208D101214020EC
:10307000FFF72FFD00214020FFF72BFD3DE0C0486A
:10308000844208D101218020FFF723FD0021802008
:10309000FFF71FFD31E0BB48844208D101218015B4
:1030A000FFF717FD0021A015FFF713FD25E0B64837
:1030B000844209D101210804FFF7FEFC00214FF4EE
:1030C0008030FFF7F9FC18E0B048844209D10121B3
:1030D0004804FFF7F1FC00214FF40030FFF7ECFC4F
:1030E0000BE0AB48844208D101218804FFF7E4FCDF
:1030F00000214FF48020FFF7DFFC10BD0022028882
:10310000944B98420ED0994B98420BD0B0F1804F1F
:1031100008D0914B984205D0904B984202D0904BEA
:10312000984204D14FF68F731A404B881A438D4B47
:10313000984207D08C4B984204D04FF6FF431A4078
:10314000CB881A4302808B8883850B880385814B4B
:1031500098420BD0854B984208D08B4B984205D0B3
:103160008A4B984202D08A4B984201D10B7A03864F
:1031700001238382704770B5002400220023058C50
:103180004FF6FE7635400584028C8388048B4FF61B
:103190008F752C40B51E2C400D882C43751E2A407F
:1031A0000D892A434D882A436A4DA8420BD06F4DA2
:1031B000A84208D0744DA84205D0744DA84202D050
:1031C000734DA84213D14FF6F7752A404D892A4313
:1031D0004FF6FB752A408D882A434FF6FF652B403A
:1031E0004FF6FF552B408D892B43CD892B43838090
:1031F0000483CD888586028470BD70B500240022CA
:103200000023058C4FF6EF7635400584028C8388C9
:10321000048B48F6FF752C404FF6FF452C400D8877
:103220004FF6FF7606EA05252C434FF6DF752A4058
:103230000D8906EA05152A434D8806EA05152A4335
:10324000444DA84202D0494DA8421DD14FF67F758A
:103250002A404D894FF6FF7606EA05152A434FF6B8
:10326000BF752A408D8806EA05152A434FF6FF35BB
:103270002B404FF2FF752B408D8906EA85052B43C5
:10328000CD8906EA85052B4383800483CD88058795
:10329000028470BD70B5002400220023058C4FF617
:1032A000FF6635400584028C8388848B4FF68F75CA
:1032B0002C404FF6FC752C400D882C434FF6FF55E3
:1032C0002A400D894FF6FF7606EA05252A434D88E8
:1032D00006EA05252A431F4DA84202D0234DA842E5
:1032E0001DD14FF2FF752A404D894FF6FF7606EA51
:1032F00005252A434FF6FF352A408D8806EA052525
:103300002A434EF6FF752B404DF6FF752B408D89F5
:1033100006EA05152B43CD8906EA05152B43838064
:103320008483CD888587028470BD70B50022002318
:103330000024058C4EF6FF7635400584038C848886
:10334000828B48F6FF752A404FF6FF452A400D88CC
:1033500020E00000002C0140000400400008004074
:10336000000C0040001000400014004000340140F8
:10337000004C014000500140005401400018004042
:10338000001C00400020004000400140004401407B
:10339000004801404FF6FF7606EA05252A434DF620
:1033A000FF752B400D8906EA05352B434D8806EA4B
:1033B00005352B43FA4DA84202D0FA4DA84208D158
:1033C0004BF6FF752C408D894FF6FF7606EA851582
:1033D0002C4384808283CD88A0F84050038470BD44
:1033E000828B4FF2FF331A408283828B4FF6FF733A
:1033F00003EA01231A4382837047F0B50C46154651
:10340000002200210026078C4EF6FF7C07EA0C07FD
:103410000784828B018C4FF6FF7707EA043640F66B
:10342000FF473A404FF6FF7707EA05273A434FF642
:10343000FF7707EA03373A43D94FB8420ED0D94F46
:10344000B8420BD0B0F1804F08D0D74FB84205D06A
:10345000D64FB84202D0D64FB84206D14DF6FF77CC
:10346000394046F48057394305E047F6FF57394065
:1034700044F48057394382830184F0BD828B4FF638
:10348000F3731A408283828B0A4382837047F0B5BC
:103490000C461546002200210026078C4FF6FF6CD3
:1034A00007EA0C070784828B018C4FF6FF7707EA47
:1034B00004264FF60C773A404FF6FF7707EA0317DA
:1034C0002F433A43B64FB8420ED0B64FB8420BD056
:1034D000B0F1804F08D0B44FB84205D0B34FB842D6
:1034E00002D0B34FB84206D14FF6FF57394046F4E9
:1034F0008077394305E04FF2FF57394044F4807735
:10350000394382830184F0BD028B4FF2FF331A40AE
:103510000283028B4FF6FF7303EA01231A430283EF
:103520007047F0B50C461546002200210026078C96
:103530004FF6EF7C07EA0C070784028B018C4FF6ED
:10354000FF7707EA041640F6FF473A404FF6FF7749
:1035500007EA03373A434FF6FF7707EA05273A436E
:103560008F4FB8420ED08F4FB8420BD0B0F1804F82
:1035700008D08D4FB84205D08C4FB84202D08C4F46
:10358000B84206D14FF6DF77394046F0100739438D
:1035900005E04FF65F77394044F010073943028366
:1035A0000184F0BD028B4FF6F3731A400283028B45
:1035B0000A4302837047F0B50C46154600220021ED
:1035C000068C4FF6FE773E400684028B018C4FF648
:1035D0000C7632407E1C06EA03162E433243704EB0
:1035E000B0420ED06F4EB0420BD0B0F1804F08D039
:1035F0006D4EB04205D06D4EB04202D06C4EB0421E
:1036000006D14FF6FD76314044F00106314305E026
:103610004FF6F576314044F00106314302830184D0
:10362000F0BD70B505460C465D4885420ED05D483C
:1036300085420BD0B5F1804F08D05B48854205D05C
:103640005A48854202D05A48854200D100E000BF66
:10365000208850B92389A28861882846FFF7ABFFEC
:10366000E1882846FFF79EFF25E0208804280AD13C
:103670002389A28861882846FFF753FFE1882846FE
:10368000FFF742FF17E0208808280AD12389A28883
:1036900061882846FFF7FBFEE1882846FFF7EEFE2B
:1036A00009E02389A28861882846FFF7A6FEE18801
:1036B0002846FFF795FE70BD2DE9F04105460C4602
:1036C00000260127608808B9022600E00026A088AD
:1036D000012801D1022700E001272088A0B9238911
:1036E000A28861882846FFF766FFE1882846FFF731
:1036F00059FF23893A4631462846FFF712FFE188F1
:103700002846FFF701FF13E02389A2886188284635
:10371000FFF707FFE1882846FFF7F6FE23893A46C0
:1037200031462846FFF747FFE1882846FFF73AFF72
:10373000BDE8F0810A884B881A438B881A43CB88EE
:103740001A430B891A434B891A438B891A43A0F8F1
:10375000442070474FF6FF71818000210180C180B5
:103760004180017270470021018041808180C180C9
:10377000018141818181C1817047002101804180A7
:10378000012181800021C1800181704700210180D9
:1037900041808180C1800181418181817047000029
:1037A000002C0140003401400004004000080040AB
:1037B000000C004021B1028842F00102028004E0C6
:1037C00002884FF6FE731A400280704731B1B0F89C
:1037D000442042F40042A0F8442005E0B0F8442020
:1037E000C2F30E02A0F8442070471AB183890B433C
:1037F000838102E083898B43838170478182704794
:1038000041EA0203A0F8483070471AB183890B439C
:10381000838102E083898B438381704701894FF65E
:10382000F8721140018170470A46002101894FF664
:103830008F73194011430181704730B504460D461E
:1038400029462046FFF7F0FF208940F0070020813D
:1038500030BD2DE9F04104460D4616461F46602D49
:1038600006D13B46012231462046FFF75AFE05E0CD
:103870003B46012231462046FFF79DFE2946204661
:10388000FFF7D2FF208940F007002081BDE8F081DA
:1038900030B50C4600210189C9B24FF6FF7505EA23
:1038A0000325154325432943018130BD2DE9F0410E
:1038B00005460E4617469846002443463A4631468A
:1038C0002846FFF7E5FF2C894FF6F870044044F0D6
:1038D00007044FF68F70044044F070042C81BDE85B
:1038E000F081F0B504460D4616461F463B4632466B
:1038F00029462046FFF7CCFF208940F480402081F4
:10390000F0BD0185828270470A46002101884FF68A
:103910008F731940114301807047F0B50C4615466E
:103920001E460021002200230189028B038C4FF6E2
:10393000F877394021434FF6FC473A4040F20117EF
:103940003A434FF6DD773B404FF6FF7707EA06171D
:103950002F433B43018102830384F0BD0A460021CB
:10396000018B4FF68F7319401143018370470A464C
:103970000021018B48F6FF7319404FF6FF7303EAED
:1039800002231943018370470A460021818B4FF6B9
:103990008F7319401143818370470A460021818B40
:1039A00048F6FF7319404FF6FF7303EA02231943E9
:1039B0008183704721B1028842F08002028004E0D6
:1039C00002884FF67F731A400280704721B18288C7
:1039D00042F00402828004E082884FF6FB731A40B2
:1039E0008280704721B1828842F00802828004E020
:1039F00082884FF6F7731A408280704721B182881F
:103A000042F00102828004E082884FF6FE731A4081
:103A1000828070470A460021018B4FF6F7731940E8
:103A20001143018370470A460021018B4FF2FF7357
:103A300019404FF6FF7303EA0223194301837047CD
:103A40000A460021818B4FF6F77319401143818399
:103A500070470A460021818B4FF2FF7319404FF6E1
:103A6000FF7303EA02231943818370470A4600214A
:103A7000018B4FF6FB7319401143018370470A46CF
:103A80000021018B4FF6FF3319404FF6FF7303EA15
:103A900002231943018370470A460021818B4FF6A8
:103AA000FB7319401143818370470A460021818BC3
:103AB0004FF6FF3319404FF6FF7303EA0223194311
:103AC000818370470A460021018B4FF67F731940AE
:103AD0001143018370470A460021018BC1F30E0197
:103AE0004FF6FF7303EA02231943018370470A4626
:103AF0000021818B4FF67F731940114381837047FA
:103B00000A460021818BC1F30E014FF6FF7303EAD1
:103B100002231943818370470A460021018C4FF626
:103B2000FD7319401143018470470A460021018C3E
:103B30004FF6F77319401143018470470A4600217C
:103B4000018C4FF6DF7319404FF6FF7303EA02133F
:103B50001943018470470A460021018C4FF67F7398
:103B600019404FF6FF7303EA0213194301847047AB
:103B70000A460021018C4FF6FF5319404FF6FF73A0
:103B800003EA02231943018470470A460021018C8D
:103B90004FF2FF7319404FF6FF7303EA02231943F4
:103BA000018470470A460021018C4DF6FF731940CD
:103BB0004FF6FF7303EA023319430184704730B5AF
:103BC000002301248C40A3B2048C9C430484048C05
:103BD00002FA01F5ADB22C43048430BD30B50023A8
:103BE00004248C40A3B2048C9C430484048C02FA09
:103BF00001F5ADB22C43048430BD70B503460020FE
:103C000000241846183001258D40ACB21D8CA54308
:103C10001D8409B1082909D100EB6100056825F070
:103C2000700505600568154305600EE00D1FC5F3BE
:103C30004E052844056825F4E045056005684FF603
:103C4000FF7606EA02263543056070BD21B1028881
:103C500042F00202028004E002884FF6FD731A402F
:103C60000280704721B1028842F00402028004E021
:103C700002884FF6FB731A400280704721B1828898
:103C800042F08002828004E082884FF67F731A40FF
:103C90008280704702884FF6F7731A4002800288CC
:103CA0000A430280704782884FF68F731A408280E1
:103CB00082880A438280704702894FF6F8731A405F
:103CC000028102890A430281704702894FF67F739D
:103CD0001A40028102890A43028170478184704739
:103CE000818570478186704701877047818770475B
:103CF000A0F84010704702884FF6FF431A40028038
:103D000002880A43028070470146888E7047014648
:103D1000088F70470146888F70470146B1F8400010
:103D200070470146888C70470146088D70470246EF
:103D30000020138A0B400BB1012000E000207047E7
:103D4000CA430282704730B5024600200023002497
:103D5000158A05EA0103958905EA010413B10CB13E
:103D6000012000E0002030BDCA4302827047704746
:103D70000FB4044910B503AA029800F0BDFA10BCB4
:103D80005DF814FBF80300202DE9F0474FF0000A1E
:103D900089460446C0F820A02046E16888470028EC
:103DA00076D0252806D0D4E901219047206A401C0E
:103DB0002062F1E7E168204600258847C4F81CA08E
:103DC00006460027C4F818A02A2E09D0304600F075
:103DD000FAFF38B304EB8708303EC8F8186019E0E2
:103DE00059F8041B204604EB87029161E16888477B
:103DF000012F064618D1E069002820DA25F02005B9
:103E00001DE0D8F8180000EB800006EB40003038C9
:103E1000C8F818002046E1688847064600F0D3FF3E
:103E20000028EED1012F0AD02E2E08D12046E168BD
:103E300088477F1C0646022F45F02005C4DBA06999
:103E4000002803DA404245F00105A061E80701D0EF
:103E500025F01005B6B1A6F14100192802D8203688
:103E600045F400654A463146204625604D46FCF73C
:103E7000B9F958B1012806D0ED1D25F0070000F171
:103E8000080989E704E005F1040985E730468AE777
:103E9000206ABDE8F08710B5431C02E010F8011B52
:103EA00071B18107FAD14FF0013202C88C1A8C43EC
:103EB00014EAC211F9D0C01A0A0603D0C01E10BD00
:103EC000C01A10BD0A0401D0801E10BD0902FCD02A
:103ED000401E10BD704770477047704770472DE90E
:103EE000FF4F0C461E464FF0FF378BB0D2E9000162
:103EF000DDF860800A908A46C1F30A5505B93D464F
:103F0000002108464FF00000BAF1000F00F4400015
:103F100005DA00EB80004FF4400101EA50004FEA5F
:103F20009059B9F1010F00DDB9460A9850EA4A00EC
:103F30000ED044F61050A5F2FF3545432F14B8F1CA
:103F4000000F1ED07542291E1EDDC9F100021CE0C3
:103F5000B8F1010F4FF0000001D0302103E0F2432F
:103F600005E02154401CB042FBDB3046002200211A
:103F700021540B99C1F80880C1E900200FB0BDE8B9
:103F8000F08FBD1B6D1CDEE74A4600DA694206A8C9
:103F900000F066FA06AB93E8070003AB83E807007E
:103FA00050460A9900F040FB8DE80700A0F500504C
:103FB0001F3800900398002D09DD42F21F014A4688
:103FC000084403A90390684600F09FFD08E0A0F5AF
:103FD00000504A461F3803A90390684600F0A9FD27
:103FE0008DE807000004000C03D04FF0FF304108BB
:103FF00000E01046B8F1000F03D0002200921546F1
:104000001EE0751E05D400F08DF9303262556D1E2C
:10401000F9D5B3460122084302D000227F1C04E0F8
:104020002078302801D100227F1E002A099786D0EF
:104030001DE0112D07DA00F075F9303262556D1C64
:1040400050EA0102F5D1084302D00098C8B10EE051
:104050000021681E05E0235C625C63542254401E0C
:10406000491C8142F7DBAB46A81B401E099000208B
:1040700004F80B000B98099AC0F80880C0E9002BDF
:104080007CE711264FF0000859E72DE9F04F8846EC
:104090000446D21D22F0070191B0D1E90001CDE91B
:1040A0000A0100F07CFE02460B98C00F01D02D20C3
:1040B00007E02068810701D52B2002E0202101EADA
:1040C000C000032A099001D0072A05DB03464146B8
:1040D000204600F085F90BE12078800601D5E069E3
:1040E00000E00620B8F1650F814606D0B8F1660FF2
:1040F00018D0B8F1670F70D131E00020B9F1110F7D
:10410000009001DB112301E009F101030AAA01A9D2
:104110000CA8FFF7E4FEDDE90C70002609F10105AB
:10412000834647E001204B4600904FF000470AAA23
:1041300001A90CA8FFF7D3FEDDE90DB00C995D468F
:10414000002610B909F101000D18B9EB050003D4E0
:10415000C0F1FF3609F10105A5EB09002BE0B9F12B
:10416000010F01DA4FF001090020B9F1110F0090A1
:10417000484601DD112300E003460AAA01A90CA864
:10418000FFF7ADFEDDE90C704D4600268346207832
:1041900000070AD4AB4500DA5D4601A8012D04DD15
:1041A000411911F8011C302907D04F4502DA17F1E7
:1041B000040F04DA012082460FE06D1EEEE7002FA7
:1041C00002DCED1B3E4403E0781CA84200DD7D1CB0
:1041D000B81B00F1010A4FF000472078000703D414
:1041E000AA4501DB4FF0FF3A0021B7F1004F0DF176
:1041F00043088DF8431024D002202B23002F01DA2E
:104200007F422D230A21021EA0F1010000DC5FB1D4
:1042100097FBF1FC97FBF1F201FB1C7C17460CF1BC
:10422000300C08F801CDEEE7A8F1010003702188F9
:10423000090501D5452100E06521A0F1010800F83C
:10424000011C09980FA9A1EB0807FF1D00B101206F
:10425000411901EBEA70A1693844081A401EA061B7
:104260002078C00602D42046AFF30080099828B118
:10427000D4E901219047206A401C20622078C006C2
:1042800022D52046AFF300801EE0002E04DBB345AC
:1042900002DD01A8805D00E03020D4E901219047D3
:1042A000206A401C2062761CAAF101005FEA000A25
:1042B0000AD100F033F8C0680168405CD4E90121FC
:1042C0009047206A401C2062281EA5F10105DCDC15
:1042D00007E0D4E9012118F8010B9047206A401C3F
:1042E0002062381EA7F10107F3DC2046AFF30080FF
:1042F000032011B043E60000074B70B50D467B4428
:1043000000F05BF80446284600F018F910B14FF0B1
:10431000FF3070BD204670BDF5DEFFFF00487047DE
:104320003C05002030B5B0F10A024FEA900E71F161
:1043300000034EEA817EB0EB0E0061EB91014FEA83
:10434000101E4EEA017E10EB0E0041EB11114FEAF8
:10435000102E4EEA016E10EB0E0041EB11214FEAD8
:10436000104E4EEA014E10EB0E0041EB1141401889
:1043700041F100014FEAD00040EA41704FEAD1011B
:1043800010EB80054FEA810444EA907444EB010489
:104390006D1944EB0404521BA3414FF0000348BFC6
:1043A0000A3200D530BD401C41F1000130BD000093
:1043B00001694A1C02610878704700B58FB0CDE9E9
:1043C00001310021059105497944CDE903101146D9
:1043D0006846FFF7D9FC0FB000BD0000E5FFFFFF06
:1043E0002DE9F0411F46044603260168072A01F41F
:1043F000006004DB08B116A505E016A503E008B1CE
:1044000015A500E015A521F010002060A069C01ED0
:10441000A0610FB1401EA0612046AFF300804FB1F4
:10442000D4E9012138469047206A401C2062C01C14
:10443000206206E0206AFAE7D4E9012115F8010BB1
:104440009047761EF8D22046AFF30080BDE8F08199
:104450004E414E006E616E00494E4600696E660028
:104460002DE9F047814616468AB0334878440DC896
:104470008DE80D0030487844801C03AC0DC884E8FA
:104480000D0041F69B300844372190FBF1F290FB80
:10449000F1F5A5F1800501FB12041B3C02D5644235
:1044A000012000E00020DFF890A080460027FA44B9
:1044B000AAF1BE0A0DE0E00709D03246684607EBD4
:1044C00047010AEB810100F034FB8DE8070064101E
:1044D0007F1C002CEFD1184F7F44AC3F18E0E80759
:1044E00014D007EB04100DF1180A90E80E008AE8CA
:1044F0000E00C068F04201D198190890324606A912
:1045000003A800F016FB03AB83E807006D10641CE2
:10451000002DE4D132466946B8F1000F03A802D05D
:1045200000F0F3FA01E000F004FBC9E90001C9F86A
:1045300008200AB0BDE8F08768250000007B00F085
:1045400080007047004870471C0500207546FFF743
:10455000F9FFAE4605006946534620F00700854640
:1045600018B020B5FDF7F2FEBDE820404FF0000680
:104570004FF000074FF000084FF0000B21F007014B
:10458000AC46ACE8C009ACE8C009ACE8C009ACE88E
:10459000C0098D46704710B50446AFF30080204631
:1045A000BDE81040FBF738BE4FF0013C50F8042B3B
:1045B00051F8043B9A4221D1A2EB0C03934313EA36
:1045C000CC1317D150F8042B51F8043B9A4215D163
:1045D000A2EB0C03934313EACC130BD150F8042B3A
:1045E00051F8043B9A4209D1A2EB0C03934313EA1E
:1045F000CC13DBD04FF00000704700BFD01A01BAD7
:10460000B1FA81F101F0180122FA01F0CB40C1F1B9
:104610002001DBB2C0B2C01A2CFA01F3D11A9143C7
:1046200011EAC311E6D170475FEA400C08BF91F070
:10463000000F4FEA8C234FEAC12243EA51514FEA5F
:104640001C5018BF00F5F0404FEA300018BF41F091
:1046500000415FEA6C5C00F02980BCF1FF3F08BFBD
:1046600040F080407047130C06BF12044FF0100C4E
:104670004FF0000C130E04BF12020CF1080C130FC4
:1046800004BF12010CF1040C930F04BF92000CF153
:10469000020CD30F04BF52000CF1010C11464FF075
:1046A0000002A0F11F00A0EB0C00704711F0004FBA
:1046B00008BF704731F000413FF4D5AF0B0C06BF87
:1046C00009044FF0100C4FF0000C0B0E04BF090250
:1046D0000CF1080C0B0F04BF09010CF1040C8B0F3B
:1046E00004BF89000CF1020CCB0F04BF49000CF190
:1046F000010CCCF12003A0EB0C0022FA03F302FA28
:104700000CF241EA030100F10100704720F07F4CF8
:1047100080EA030023F07F47ACEB070303F57C53EB
:1047200000F0004003F1FF032DE980494FEA154BEB
:1047300009B44FEA144325EA0B4E24EA03480FF26A
:10474000042606EB132749083E785FEA320203FB92
:104750000667C7F5000707FB06F64FEA54374FEA2E
:10476000D64606F1020607FB066CCCF1005C4FEA68
:104770001C472CEA074C07FB06F40CFB06F504EB80
:1047800015464FEA961634BF00204FF000404FEA1E
:10479000D13706FB07FC4FEA1C4C0CFB0BF7D21B76
:1047A00003FB0CF761EB07010CFB0EF7B0EB0740C6
:1047B00072EB17420CFB08F734BFA2EB0742B2EBD7
:1047C000074261EB17414FEA0C444FEA910706FBA1
:1047D00007FC4FEA1C4C0CFB0BF7B0EBC74072EB2D
:1047E000573203FB0CF734BFA2EBC742B2EBC74210
:1047F00061EB57310CFB0EF7B0EBC70072EB577251
:104800000CFB08F734BFA2EBC702B2EBC70261EBA7
:104810005771039F4FEA816141EA921104EBCC0486
:104820004FEAD1374FEA826206FB07FC42EA901258
:104830004FEA80604FEA1C4C0CFB0BF7D21B03FBCA
:104840000CF761EB07010CFB0EF7B0EB074072EBC6
:1048500017420CFB08F734BFA2EB0742B2EB07424A
:1048600061EB17414FEA8C554FEA910704EB9C240A
:1048700006FB07FC4FEA1C4C0CFB0BF7B0EBC740E8
:1048800072EB573203FB0CF734BFA2EBC742B2EB1B
:10489000C74261EB57310CFB0EF7B0EBC70072EB70
:1048A00057720CFB08F734BFA2EBC702B2EBC7028A
:1048B00061EB577115EB4C254FEA816141EA92118A
:1048C0004FEA82624FEAD13742EA901206FB07FCB8
:1048D00044F100044FEA80604FEA1C4C0CFB0BF7DC
:1048E000D21B03FB0CF761EB07010CFB0EF7B0EBDF
:1048F000074072EB17420CFB08F734BFA2EB0742EC
:10490000B2EB074261EB174115EB1C154FEA813101
:1049100041EA92414FEA823242EA90424FEA8030C5
:104920004FEA0C7644F1000448EA03434EEA0B4890
:104930004FF0000EB2EB080C71EB030724BF624688
:1049400039464EEB0E0E4FF0000B00185241494114
:104950004BEB0B0BB2EB080C71EB03077BF1000B7D
:1049600024BF624639464EEB0E0E4FF0000B001886
:10497000524149414BEB0B0BB2EB080C71EB0307B7
:104980007BF1000B24BF624639464EEB0E0E51EA16
:10499000020718BF46F0010616EB0E7655F100022D
:1049A00054F1000103D5BDE88901BDE80088BDE8E8
:1049B0008901BDE80048B619524141EB0101A3F15C
:1049C0000103704780807F7E7D7C7B7A7978777663
:1049D00076757473727171706F6E6E6D6C6C6B6ADC
:1049E0006A6968686766666564646363626161607A
:1049F000605F5F5E5E5D5D5C5C5B5B5A5A595958F7
:104A00005857575656555555545453535252525160
:104A1000515050504F4F4F4E4E4D4D4D4C4C4C4BB6
:104A20004B4B4A4A4A4949494848484747474746FD
:104A30004646454545444444444343434342424239
:104A400042414141002B26D4770021D01CB54FEACA
:104A5000370703B44FF010004FF010014FF0000083
:104A60000FBCBDE810400BF1010BBBF1010F08BFFB
:104A70005FEA170722BF12F1010211F101014FF0A5
:104A8000004143F1000300F0004043EA000070479A
:104A9000F9D35708DAE746EA064613F1400F4FEA22
:104AA00016461FDD13F1200FDFBF16430A46002113
:104AB00020335B42C8D0C3F1200746EA064602FA1B
:104AC00007F74FEA164646EA0706C3F1200722FA1F
:104AD00003F201FA07F721FA03F14FF0000342EA6B
:104AE0000702B1E746EA020646EA06464FEA1646DC
:104AF00046EA0106BCBF46EA0646360C4FF0000304
:104B00004FF000024FF000019EE72DE9C0489346A8
:104B100030B491E8380007C831EA400C48BF34EAA5
:104B2000430C03D5FFF7F2FDFFF78CFFF0BCBDE8A7
:104B300000882DE9C048934630B491E8380007C892
:104B400010F0804F08BF13F0804F03D100F005F83C
:104B5000FFF778FFF0BCBDE8008820F07F4780EACF
:104B6000030023F07F4C07EB0C03A3F57C5300F00C
:104B70000040A3F1FE0392F0000F00F0B38095F027
:104B8000000F00F077802DE901494FEA11404FEA0C
:104B9000144621EA004800FB06FC24EA064708FB0D
:104BA00006F607FB08F800FB07F718EB06484CEB86
:104BB000164C4FEA124B18EB07484FEA15464CEBE0
:104BC000174022EA0B4E0BFB06FC25EA06470EFBBC
:104BD00006F607FB0EFE0BFB07F71EEB064E4CEB33
:104BE000164C4FF000061EEB074E4CEB174B18EB24
:104BF0000B0840F1000018EB0E0B58EB000840F1D9
:104C000000008F1A4FF000013CBFC943661B14BF60
:104C1000B5EB040C00213CBFC943F61B4FEA174417
:104C20004EEA8E0E27EA04454FEA1C4704FB076252
:104C30002CEA074C05FB07F70CFB05F604FB0CFC04
:104C400016EB074642EB174216EB0C4642EB1C42B2
:104C50001BEB060658EB0202414146EA9E0601D5CF
:104C6000BDE80189B619524141EB0101A3F10103ED
:104C7000BDE801894FEA14454FEA114724EA054689
:104C800021EA074C05FB07F406FB07F70CFB06F1CE
:104C900005FB0CFC11EB074144EB17444FEA1247AC
:104CA00011EB0C4144EB1C4422EA074C05FB07F2D4
:104CB00006FB07F70CFB06F605FB0CFC16EB07469C
:104CC00042EB174216EB0C4642EB1C456A1854F1B6
:104CD000000148BF7047B619524141EB0101A3F1F1
:104CE0000103704795F0000F37D04FEA11424FEAA9
:104CF000144721EA024624EA074C02FB07F106FBAF
:104D000007F70CFB06F402FB0CFC14EB074441EB29
:104D100017414FEA154714EB0C4441EB1C4125EABF
:104D2000074C02FB07F506FB07F70CFB06F602FB38
:104D30000CFC16EB074645EB174516EB0C4645EB0E
:104D40001C42121951F1000148BF7047B619524177
:104D500041EB0101A3F1010370474FEA14454FEA0B
:104D6000114724EA054621EA074C05FB07F106FB3B
:104D700007F70CFB06F24FF0000605FB0CFC12EBEC
:104D8000074241EB174112EB0C4251EB1C4148BF6B
:104D90007047921841EB0101A3F1010370474900EC
:104DA00050EAC12018BF04204A0D18BF40F001008E
:104DB00040F2FF72B2EB515F08BF40F002000128E1
:104DC00008BF0520704730380A2801D201207047FB
:104DD0000020704710B500290AD00878002807D0B5
:104DE00005487844FFF7E0FB002801D0002010BD03
:104DF0000248784410BD00002E1C0000261C000054
:104E000021F00042A2F16052B2F5801F01F0004390
:104E100028BFD2F17F6C0BD95FEA001C43EAC202C3
:104E200042EB507018BF704728BF20F00100704758
:104E3000B2F5801FBCBF184670474FEA410C1CF505
:104E4000001F02D2084600F098BB70B500F08CF944
:104E500000000089FFF7F6BF4FF00040A0F580008A
:104E6000704700002DE9C04130B4DFF8A0C23CEA31
:104E7000111418BF3CEA131400F0EC8081EA03051A
:104E80001CEA111444EAD57418BF1CEA131500F08B
:104E9000C780A4EB05044FF0004545EAC12145EA6F
:104EA000C32341EA505143EA525304F17F749942BB
:104EB00004F500344FEAC0204FEAC22208BF9042F6
:104EC00000F09C804FEA13650FF24016765D4FEAC2
:104ED000134506FB05F7C7F1807706FB07F74FEA96
:104EE000D737A7FB03687642C8F58038A7FB06CE04
:104EF00038BFA8F1010807FB08E64FF0000EA6FB3B
:104F0000028CE6FB03CEDCF1000CCEF1004E38BF84
:104F1000AEF1010EA6FB0C584FF000074FF0000554
:104F2000E6FB0E87A1FB08C6A0FB07CE16EB0E061C
:104F300045F10005E1FB076515F1E04E7EBFA4F5E4
:104F400080345FEA46066D4116F1800745F10005A1
:104F50004FEA17274FEA066647EA0567A6F1DE46DD
:104F6000B6F1805F4FEA15251FD9384624F0010CB1
:104F700005EBC471BCF1FE6F01EB0C1102D8F0BC63
:104F8000BDE8008124425CBF01F5801E9EEAC47F1B
:104F900002D4F0BCBDE80081244238D4F0BCA1F1B9
:104FA000C041BDE8004100F02DB94FEAD22242EAEB
:104FB00043524FEAD323A7FB02864FEAD02040EAB0
:104FC000415007FB03661EEA0E0F4FEAD12105FB95
:104FD000026658BFA6EB0056B6EB00564FEA520EDB
:104FE0004EEAC37E18EB0E0E56EB530EBDD518EBF2
:104FF00002085E417F1C55F10005B6E74FF48015AD
:105000004FF000074FF000064FF00008ADE7F0BC8E
:105010004FF0000001F1C04101F00041BDE8008106
:1050200011EA0C1F0CEA131500D00CE013EA0C1F58
:1050300000F025804FF00000F0BC81EA030101F090
:105040000041BDE80081F0BCBDE8004181EA0301F8
:1050500000F0D8B8F0BCBDE8004170B500F084F8AD
:10506000097EFC3E00F007B881EA03014FF0000022
:1050700001F00041704781EA030100F0C3B8F0BCC1
:10508000BDE800414FF0000021497047FFFDFBF9EA
:10509000F7F5F4F2F0EEEDEBE9E8E6E4E3E1E0DE6B
:1050A000DDDBDAD8D7D5D4D3D1D0CFCDCCCBCAC8DD
:1050B000C7C6C5C4C2C1C0BFBEBDBCBBBAB9B8B704
:1050C000B6B5B4B3B2B1B0AFAEADACABAAA9A8A8F7
:1050D000A7A6A5A4A3A3A2A1A09F9F9E9D9C9C9BC5
:1050E0009A99999897979695959493939291919070
:1050F0008F8F8E8E8D8C8C8B8B8A89898888878701
:105100008685858484838382828181800000FF0775
:105110000000F87F10F0004248BF4042B0FA80F330
:1051200010FA03F10AD0C3F11D0303F580634FEABF
:10513000415002EB035202EBD12170474FF00000C7
:105140007047B0FA80F310FA03F10AD0C3F11D03DF
:1051500003F580634FEA41504FEA035202EBD1213D
:1051600070474FF0000070470EF1020E2EF0030E54
:105170005EF8046B364205D4012A43EB030515F5AE
:10518000001F12D8012841EB010C1CF5001F0CD8A0
:105190000ED14FEAD17C15F5001F0CEB4C0C0CF135
:1051A000020C08BF4CEBD37C04E04FF0080C01E08C
:1051B0004FEAD37C0CEB4C0526FA05F606F0070601
:1051C000B6F1040C06D20EEB860CBDE870404CF034
:1051D000010C6047DFE80CF0090B02024FF00041C0
:1051E0004FF00000A1F5002170BD194610460128BE
:1051F00051EB010418BFD4F5001484BF002001F066
:10520000004170BD0808A0F500114FEA3101704758
:1052100043004FEAD30C4FEA3C0C43401FBF40070A
:105220000CF1605113F0FE4F70471CF0006F03D17A
:1052300000200CF0004170470CF0004343EA50702E
:1052400010B540EACC0000F052F900BF0000009217
:105250004FEA0001FFF7D6BF4FF000414FF00000CA
:10526000A1F500217047000090EA010F48BF81F0CE
:10527000004100F1CA81421A3CBF801A89184FEAE6
:10528000D0524FF07F4C1CEA410FA2EBD15318BF14
:105290009CEA026F00F03B804FF0004C4CEA00208B
:1052A0004CEA012121FA03FC10EB0C0C1ED202F196
:1052B000FF325FEA1C2040EBC25038BF70471CF041
:1052C0007F0F4FEA400C18BFBCF17F4F38BF7047CB
:1052D000C3F12003994008BF20F00100BCF17F4FCB
:1052E00038BF7047A0F1C04000F047B94FEA3C001A
:1052F000000A40EBC25028BF1CF0FF0F4FEA400CE1
:10530000E6D018BFBCF17F4F38BF7047EAE79CEA90
:10531000026F05D010EA5C0F08BF00F00040704734
:1053200010B500F0E4F800BF64FBBE3E401058BF6B
:10533000C0F14040491058BFC1F140418142EFF3F4
:1053400000807047C10DD1F19E0206DB4FEA0023B9
:1053500043F0004323FA02F07047004207D54FEABA
:105360004001B1F1FE4F02D24FF00000704710B57E
:1053700000F0BDF849922480002070476FEA2000B9
:105380007047000050EA010C00F113801CF5000F7B
:1053900058BFBCF5000F01D48842704707D710F5FD
:1053A000000F58BF11F5000F15D48842704789428D
:1053B00070471CF5000F04D5BCF5000FF7D58142EE
:1053C00070474FF0807C1CEB400F38BF1CEB410F47
:1053D00001D28142704710B500F089F8922449004B
:1053E0004FF000504FF08051FFF7A0BF4FF47F0CFB
:1053F0001CEAD0121EBF1CEAD11392EA0C0F93EAEA
:105400000C0F00F0478090EA010F48BF42F4807211
:105410004FF0004C4CEA00204CEA012102EB030261
:10542000A0FB0113A2F50002002918BF43F00103FD
:105430005B0028BF4FEA330342EB22425FEA132CA2
:105440004CEBC2502EBFBCEB436FB2F57C0F7047E4
:105450004FEA036CBCF1004F08BF20F00100B2F529
:105460007C0F38BF70470BD582F0FF0212F5803FEA
:10547000C8BF704700F1C040D8BF00F0004070477F
:1054800000F5000C5FEA4C0C48BF7047B0F1C0401B
:1054900000F073B890EA010F0CEAD11348BF42F450
:1054A0008072624538BF634504D280EA010000F093
:1054B0000040704710B500F01AF800BF8900013EA7
:1054C00000F007B800F009B85FEA410C5FEA1C6C15
:1054D00008D080EA010000F050B85FEA400C5FEAB3
:1054E0001C6CF6D14FF00040A0F5800070470EF123
:1054F000020E2EF0030E5EF8044B244204D44FEA51
:105500004102B2F17F4F11D84FEA4003B3F17F4F10
:105510000CD80ED14FEAD07CB2F17F4F0CEB4C0C83
:105520000CF1020C08BF4CEBD17C04E04FF0080CEE
:1055300001E04FEAD17C0CEB4C0324FA03F404F0B5
:105540000704B4F1040C06D20EEB840CBDE8104045
:105550004CF0010C6047DFE80CF0070802024FF046
:105560000040A0F5800010BD0846420018BFD2F1EF
:10557000807288BF00F0004010BDFF2141EAD0508A
:10558000C005704751EA000C00F113801CF5000FB4
:1055900058BFBCF5000F01D48142704707D711F501
:1055A000000F58BF10F5000F15D481427047894293
:1055B00070471CF5000F04D5BCF5000FF7D58842E5
:1055C00070474FF0807C1CEB410F38BF1CEB400F45
:1055D00001D28842704780EA010081EA000180EA36
:1055E0000100FFF7F8BE80F0004090EA010F7FF560
:1055F00042AE81F0004100F008B8000090EA010FCF
:1056000048BF81F000413FF536AE421A04D882F01F
:105610000042A0EB020011444FEAD0524FF07F4C01
:105620001CEA410FA2EBD15318BF9CEA026F4AD08B
:105630004FF0004C4CEA00204CEA012121FA03FC17
:10564000B0EB0C0C0FD412F0FE0F36D05FEA4C001A
:105650001DD5001240EBC25038BF70471CF03F0F01
:1056600018BF70470BE0A2F101025FEA1C2040EB7B
:10567000C25038BF70471CF07F0F18BF7047C3F18E
:105680002003994014BF401E20F00100704780089D
:105690004FEA122308BF7047B0FA80FCA2EB0C025D
:1056A000CCF1280C60FA0CF093EA122F04BF00EB47
:1056B000C25070474FEAC3707047130A5FEADC10AC
:1056C00008BF7047F6E79CEA026F04D010EA5C0F4F
:1056D00008BF0020704710B5FFF709FF40DFF63E16
:1056E00081F000407047FEF7D0BC000000000000D1
:1056F0000000000000000000000000000008080892
:105700000808080800001818000000486C2412005F
:10571000000000000000000000000000002424241D
:105720007F1212127F12121200000000081C2A2A97
:105730000A0C1828282A2A1C08080000002225150F
:1057400015152A585454542200000000000C12125F
:10575000120A76252911916E000000060604030046
:1057600000000000000000000000004020101008B1
:10577000080808080810102040000002040808105B
:1057800010101010100808040200000000000808A3
:105790006B1C1C6B080800000000000000000808DB
:1057A00008087F080808080000000000000000004A
:1057B00000000000000006060403000000000000D6
:1057C0000000FE00000000000000000000000000DB
:1057D000000000000000060600000000804040209D
:1057E00020101008080404020200000000182442DF
:1057F00042424242424224180000000000080E08C3
:10580000080808080808083E00000000003C424262
:10581000422020100804427E00000000003C42426A
:10582000201820404042221C0000000000203028A8
:10583000242422227E20207800000000007E020224
:10584000021A26404042221C0000000000382402B8
:10585000021A26424242241800000000007E222242
:10586000101008080808080800000000003C424228
:10587000422418244242423C000000000018244206
:10588000424264584040241C000000000000000018
:1058900018180000000018180000000000000000A8
:1058A000000800000000000808040000004020106C
:1058B000080402040810204000000000000000005E
:1058C0007F0000007F0000000000000000020408CC
:1058D000102040201008040200000000003C42425A
:1058E000464020101000181800000000001C225A2A
:1058F000555555552D42221C00000000000808187F
:105900001414243C224242E700000000001F22221F
:10591000221E22424242221F00000000007C42421E
:10592000010101010142221C00000000001F22426F
:10593000424242424242221F00000000003F421207
:10594000121E12120242423F00000000003F4212AB
:10595000121E12120202020700000000003C222266
:10596000010101712122221C0000000000E74242D7
:1059700042427E42424242E700000000003E0808E8
:10598000080808080808083E00000000007C101005
:105990001010101010101010110F000000772212BC
:1059A0000A0E0A12122222770000000000070202EB
:1059B000020202020202427F000000000077363637
:1059C00036362A2A2A2A2A6B0000000000E34646BF
:1059D0004A4A52525262624700000000001C2241B3
:1059E000414141414141221C00000000003F424230
:1059F00042423E020202020700000000001C224157
:105A0000414141414D53321C60000000003F424281
:105A1000423E1212222242C700000000007C424295
:105A2000020418204042423E00000000007F490866
:105A3000080808080808081C0000000000E74242A7
:105A4000424242424242423C0000000000E74242E1
:105A5000222424141418080800000000006B49498F
:105A600049495555362222220000000000E7422411
:105A700024181818242442E700000000007722228E
:105A8000141408080808081C00000000007E2120EB
:105A9000101008040442423F00000078080808087B
:105AA0000808080808080808780000000202040432
:105AB00008080810102020204040001E1010101070
:105AC00010101010101010101E00003844000000BC
:105AD00000000000000000000000000000000000C6
